:04000000BDEF05F05B
:1008000000416C61726D613A0046656368613A004F
:07081000486F72613A00001D
:100818004AEC06F075EC06F076EC04F0070E1C6E58
:10082800170E1B6E6A0EE82EFED71B2EFCD71C2E49
:10083800FAD700D020EC06F05EEC05F00AEC06F0E2
:1008480082BC29EF04F02BEF04F038EF04F01D50C0
:100858001E10D8B432EF04F035EF04F0010E36EF75
:1008680004F0000E1D6E1E6A1D501E10D8A43FEF26
:1008780004F041EF04F06EEF04F0100E176ED4ECA4
:1008880004F07FEC05F014EC05F08C92000E126E6B
:10089800010E116E000E146E010E136EC00EF2ECF6
:1008A80005F08C82090E176ED4EC04F09EEC05F06E
:1008B80039EC05F01F0E1C6E710E1B6E1E0EE82E15
:1008C800FED71B2EFCD71C2EFAD700D020EC06F042
:1008D80024EF04F0010E176ED4EC04F05EEF04F080
:1008E80000EF00F0EA0E176EC30EE82EFED7172EA3
:1008F800FCD700008C92000E126E050E116E000ED1
:10090800146E010E136E330EF2EC05F0000E126E2B
:10091800010E116E000E146E010E136E320EF2EC03
:1009280005F0000E126E010E116E000E146E010E0F
:10093800136E280EF2EC05F0000E126E010E116E09
:10094800000E146E010E136E060EF2EC05F0000E8A
:10095800126E010E116E000E146E010E136E0E0E45
:10096800F2EC05F0000E126E010E116E000E146E00
:10097800010E136E010EF2EC05F0200E176E2A0E12
:10098800E82EFED7172EFCD7000E126E010E116E40
:10099800000E146E010E136E800EF2EC05F01200BC
:1009A800000E1A6E000E196E04EF05F0100E1918DD
:1009B8001A10D8A4E2EF04F0E4EF04F0F1EF04F029
:1009C8008C92000E126E010E116E000E146E010E46
:1009D800136EC00EF2EC05F08C82000E126E010E42
:1009E800116E000E146E010E136E17501924186E36
:1009F80018C0F6FF0800F550F2EC05F0194A1A2A5B
:100A080017C00FF0DAEC05F00F50195C10501A58A7
:100A1800D8A011EF05F013EF05F0DAEF04F012009B
:100A280024380F0B300F5AEC06F024500F0B300F00
:100A38005AEC06F03A0E5AEC06F023380F0B300F3A
:100A48005AEC06F023500F0B300F5AEC06F03A0E12
:100A58005AEC06F022380F0B300F5AEC06F02250F1
:100A68000F0B300F5AEC06F0120021380F0B300F25
:100A78005AEC06F021500F0B300F5AEC06F02F0EEF
:100A88005AEC06F020380F0B300F5AEC06F02050C5
:100A98000F0B300F5AEC06F02F0E5AEC06F01F38E9
:100AA8000F0B300F5AEC06F01F500F0B300F5AEC9B
:100AB80006F01200000E0F6E0F50080FD96EDA6A9A
:100AC8000F0EDF160F2A060E0F646DEF05F06FEF9D
:100AD80005F060EF05F00850100DF3500924246E5E
:100AE8000A50100DF3500B24236E0C50100DF350C8
:100AF8000D24226E1200ABEC06F0D00E69EC06F065
:100B0800000E69EC06F0B4EC06F0D10E69EC06F0C4
:100B180081EC06F0226E97EC06F081EC06F0236E6D
:100B280097EC06F081EC06F0246E8CEC06F0A2EC53
:100B380006F01200ABEC06F0D00E69EC06F0040EDD
:100B480069EC06F0B4EC06F0D10E69EC06F081EC25
:100B580006F0216E97EC06F081EC06F0206E97EC1B
:100B680006F081EC06F01F6E8CEC06F0A2EC06F0A5
:100B780012008C0EF66E0D0EF76E000EF86E00EE7B
:100B880001F010EE0EF00900F5CFEEFFE550E15050
:100B9800FAE100EE1DF0080EEE6AE806FDE1000E2F
:100BA800F86E080EF76E00010CEF04F00FC011F09C
:100BB800DFEF05F00F2A0FC0F6FF0800F550000917
:100BC800D8A4E9EF05F0EBEF05F0DEEF05F01150E2
:100BD8000F5C0F6E106A0FBE10061200156E8C5057
:100BE8000F0B166E1550F00B16108C6EBDEC06F040
:100BF800115035EC06F01538F00BF00B16108C6E12
:100C0800BDEC06F0135035EC06F01200ABEC06F024
:100C1800D00E69EC06F0000E69EC06F0225069EC83
:100C280006F0235069EC06F0245069EC06F097ECC6
:100C380006F0A2EC06F012008C92000E126E010E65
:100C4800116E000E146E010E136E010EF2EC05F01B
:100C5800200E176E2A0EE82EFED7172EFCD78C8290
:100C68001200106E40EF06F0100E0F6E940EE82E74
:100C7800FED70F2EFCD700D010061028D8A447EFB7
:100C880006F049EF06F038EF06F012006D966F8611
:100C980093809382938493869388000E956E000EBA
:100CA8008A6E000E8C6E000E8B6E1200176E8C8290
:100CB800000E126E010E116E000E146E010E136EF0
:100CC8001750F2EC05F08C8212000F6E9E960FC042
:100CD800C9FF9EA672EF06F074EF06F06DEF06F0FE
:100CE8001200C78EC79CC68AC650F00B0809C66E8C
:100CF800000EC56E1D0EC86E12009E96C5869EA675
:100D080088EF06F08AEF06F083EF06F0C95012006C
:100D18009E96C58AC5889EA694EF06F096EF06F0C3
:100D28008FEF06F012009E96C59AC5889EA69FEF83
:100D380006F0A1EF06F09AEF06F01200C584C5B4DC
:100D4800A8EF06F0AAEF06F0A3EF06F01200C580A0
:100D5800C5B0B1EF06F0B3EF06F0ACEF06F0120045
:100D6800C582C5B2BAEF06F0BCEF06F0B5EF06F0E3
:100D780012008C84040EE82EFED78C94040EE82E04
:100D8800FED7120031383030303000313231303156
:020D9800300029
:020000040020DA
:08000000FFFFFFFFFFFFFFFF00
:020000040030CA
:0E000000020E1E1EFF8181FF0FC00FE00F4099
:00000001FF
