:04000000BAEF05F05E
:100800000020486F6C6120207065727261736F7395
:03081000200000C5
:100814006D966F8693809382938493869388000E5B
:10082400956E000E8C6E000E8B6E23EC06F092EC2F
:1008340004F040EC05F08C92000E046E010E036E81
:10084400000E066E010E056E0C0ED5EC05F08C82C2
:10085400EDEC05F0070E126E170E116E6A0EE82EFF
:10086400FED7112EFCD7122EFAD700D0010E096E36
:100874000950D8A4080E0A6E0A50D8A4000E0B6EB4
:10088400F0EC04F03D0E126EE10E116E400EE82EF7
:10089400FED7112EFCD7122EFAD7EDEC05F08C8280
:1008A40099EC05F029380F0B116E126A300E1126DF
:1008B400000E122211C013F012C014F0156A14BEF7
:1008C400156813C009F014C00AF015C00BF0F0EC61
:1008D40004F029500F0B116E126A300E1126000E0F
:1008E400122211C013F012C014F0156A14BE156858
:1008F40013C009F014C00AF015C00BF0F0EC04F0BA
:10090400070E126E170E116E6A0EE82EFED7112E08
:10091400FCD7122EFAD700D052EF04F000EF00F00B
:10092400EA0E096EC30EE82EFED7092EFCD700008E
:100934008C92000E046E050E036E000E066E010E00
:10094400056E330ED5EC05F0000E046E010E036E39
:10095400000E066E010E056E320ED5EC05F0000E8B
:10096400046E010E036E000E066E010E056E280E57
:10097400D5EC05F0000E046E010E036E000E066E3B
:10098400010E056E060ED5EC05F0000E046E010E88
:10099400036E000E066E010E056E0E0ED5EC05F00C
:1009A400000E046E010E036E000E066E010E056E3F
:1009B400010ED5EC05F0200E096E2A0EE82EFED7A6
:1009C400092EFCD7000E046E010E036E000E066E97
:1009D400010E056E800ED5EC05F01200000E106EAF
:1009E400000E0F6E2CEF05F0100E0F181010D8A487
:1009F400FEEF04F000EF05F00DEF05F08C92000E11
:100A0400046E010E036E000E066E010E056EC00E1E
:100A1400D5EC05F08C82000E046E010E036E000E00
:100A2400066E010E056E0F5009240C6E10500A203C
:100A34000D6E000E10BEFF0E0B200E6E0CC0F6FFE6
:100A44000DC0F7FF0EC0F8FF0800F550D5EC05F017
:100A54000F4A102A09C001F00AC002F00BC003F0CB
:100A640074EC05F001500F5C02501058D8A03DEF13
:100A740005F03FEF05F0F6EF04F012001EC002F09F
:100A84000F0E02161D500F0B100DF3500224296E89
:100A940020C002F00F0E02161F500F0B100DF35062
:100AA4000224286E22C002F00F0E021621500F0BF2
:100AB400100DF3500224276E59EC06F0D00E17ECFB
:100AC40006F0000E17EC06F0275017EC06F028503D
:100AD40017EC06F0295017EC06F045EC06F050EC44
:100AE40006F0120001C004F002C005F003C006F0D5
:100AF40082EF05F0010E0126000E0222000E0322F1
:100B040001C0F6FF02C0F7FF03C0F8FF0800F5506C
:100B14000009D8A490EF05F092EF05F07CEF05F002
:100B24000450015C016E05500258026E120059EC2B
:100B340006F0D00E17EC06F0000E17EC06F062EC8F
:100B440006F0D10E17EC06F045EC06F02FEC06F09B
:100B5400276E45EC06F02FEC06F0286E45EC06F007
:100B64002FEC06F0296E3AEC06F050EC06F0120079
:100B7400E80EF66E0C0EF76E000EF86E00EE16F030
:100B840010EE0EF00900F5CFEEFFE550E150FAE16A
:100B9400296A286A276A266A256A246A000EF86E7A
:100BA40000010AEF04F0076E8C500F0B086E07501B
:100BB400F00B08108C6E6BEC06F0035002EC06F0A0
:100BC4000738F00BF00B08108C6E6BEC06F0055038
:100BD40002EC06F012008C92000E046E010E036EFD
:100BE400000E066E010E056E010ED5EC05F0200E0A
:100BF400096E2A0EE82EFED7092EFCD78C8212002D
:100C0400026E0DEF06F0100E016E940EE82EFED764
:100C1400012EFCD700D002060228D8A414EF06F057
:100C240016EF06F005EF06F01200016E9E9601C065
:100C3400C9FF9EA620EF06F022EF06F01BEF06F098
:100C44001200C78EC79CC68AC650F00B0809C66E30
:100C5400000EC56E1D0EC86E12009E96C5869EA619
:100C640036EF06F038EF06F031EF06F0C950120007
:100C74009E96C58AC5889EA642EF06F044EF06F00C
:100C84003DEF06F012009E96C59AC5889EA64DEFCC
:100C940006F04FEF06F048EF06F01200C584C5B425
:100CA40056EF06F058EF06F051EF06F01200C5803B
:100CB400C5B05FEF06F061EF06F05AEF06F01200E0
:100CC400C582C5B268EF06F06AEF06F063EF06F07E
:100CD40012008C84040EE82EFED78C94040EE82EA9
:100CE400FED7120031303030303000313231303202
:020CF4003000CE
:020000040020DA
:08000000FFFFFFFFFFFFFFFF00
:020000040030CA
:0E000000020E1E1EFF8181FF0FC00FE00F4099
:00000001FF
